:100000000C9434000C943E000C943E000C943E0082
:100010000C943E000C943E000C943E000C943E0068
:100020000C943E000C943E000C943E000C943E0058
:100030000C943E000C943E000C943E000C943E0048
:100040000C943E000C943E000C943E000C943E0038
:100050000C943E000C943E000C943E000C943E0028
:100060000C943E000C943E0011241FBECFEFD8E04C
:10007000DEBFCDBF0E9458000C9483000C9400009A
:10008000DF93CF930F92CDB7DEB720E030E040E0B2
:1000900050E005C019822F5F3F4F4F4F5F4F26172B
:1000A000370748075907B0F30F90CF91DF910895B4
:1000B000DF93CF930F92CDB7DEB782E084B9299A50
:1000C00080E090E0A0E0B0E019820196A11DB11D92
:1000D000803920ED920723E0A20720E0B207A1F7C4
:1000E00085B115B880E090E0A0E0B0E019820196FB
:1000F000A11DB11D803920ED920723E0A20720E069
:0A010000B207A1F7DCCFF894FFCF9F
:00000001FF
